{
  "_format": "hh-sol-artifact-1",
  "contractName": "Tracking",
  "sourceName": "contracts/Tracking.sol",
  "abi": [
    {
      "inputs": [],
      "stateMutability": "nonpayable",
      "type": "constructor"
    },
    {
      "anonymous": false,
      "inputs": [
        {
          "indexed": true,
          "internalType": "address",
          "name": "sender",
          "type": "address"
        },
        {
          "indexed": true,
          "internalType": "address",
          "name": "receiver",
          "type": "address"
        },
        {
          "indexed": false,
          "internalType": "uint256",
          "name": "pickupTIme",
          "type": "uint256"
        },
        {
          "indexed": false,
          "internalType": "uint256",
          "name": "distance",
          "type": "uint256"
        },
        {
          "indexed": false,
          "internalType": "uint256",
          "name": "price",
          "type": "uint256"
        }
      ],
      "name": "ShipmentCreated",
      "type": "event"
    },
    {
      "anonymous": false,
      "inputs": [
        {
          "indexed": true,
          "internalType": "address",
          "name": "sender",
          "type": "address"
        },
        {
          "indexed": true,
          "internalType": "address",
          "name": "receiver",
          "type": "address"
        },
        {
          "indexed": false,
          "internalType": "uint256",
          "name": "delivertTime",
          "type": "uint256"
        }
      ],
      "name": "ShipmentDelivered",
      "type": "event"
    },
    {
      "anonymous": false,
      "inputs": [
        {
          "indexed": true,
          "internalType": "address",
          "name": "sender",
          "type": "address"
        },
        {
          "indexed": true,
          "internalType": "address",
          "name": "receiver",
          "type": "address"
        },
        {
          "indexed": false,
          "internalType": "uint256",
          "name": "pickupTIme",
          "type": "uint256"
        }
      ],
      "name": "ShipmentInTransit",
      "type": "event"
    },
    {
      "anonymous": false,
      "inputs": [
        {
          "indexed": true,
          "internalType": "address",
          "name": "sender",
          "type": "address"
        },
        {
          "indexed": true,
          "internalType": "address",
          "name": "receiver",
          "type": "address"
        },
        {
          "indexed": false,
          "internalType": "uint256",
          "name": "amount",
          "type": "uint256"
        }
      ],
      "name": "ShipmentPaid",
      "type": "event"
    },
    {
      "inputs": [
        {
          "internalType": "address",
          "name": "_sender",
          "type": "address"
        },
        {
          "internalType": "address",
          "name": "_receiver",
          "type": "address"
        },
        {
          "internalType": "uint256",
          "name": "_index",
          "type": "uint256"
        }
      ],
      "name": "completeShipment",
      "outputs": [],
      "stateMutability": "nonpayable",
      "type": "function"
    },
    {
      "inputs": [
        {
          "internalType": "address",
          "name": "_receiver",
          "type": "address"
        },
        {
          "internalType": "uint256",
          "name": "_pickupTime",
          "type": "uint256"
        },
        {
          "internalType": "uint256",
          "name": "_distance",
          "type": "uint256"
        },
        {
          "internalType": "uint256",
          "name": "_price",
          "type": "uint256"
        }
      ],
      "name": "createShipment",
      "outputs": [],
      "stateMutability": "payable",
      "type": "function"
    },
    {
      "inputs": [],
      "name": "getAllTransactions",
      "outputs": [
        {
          "components": [
            {
              "internalType": "address",
              "name": "sender",
              "type": "address"
            },
            {
              "internalType": "address",
              "name": "receiver",
              "type": "address"
            },
            {
              "internalType": "uint256",
              "name": "pickupTime",
              "type": "uint256"
            },
            {
              "internalType": "uint256",
              "name": "deliveryTime",
              "type": "uint256"
            },
            {
              "internalType": "uint256",
              "name": "distance",
              "type": "uint256"
            },
            {
              "internalType": "uint256",
              "name": "price",
              "type": "uint256"
            },
            {
              "internalType": "enum Tracking.ShipmentStatus",
              "name": "status",
              "type": "uint8"
            },
            {
              "internalType": "bool",
              "name": "isPaid",
              "type": "bool"
            }
          ],
          "internalType": "struct Tracking.TypeShipment[]",
          "name": "",
          "type": "tuple[]"
        }
      ],
      "stateMutability": "view",
      "type": "function"
    },
    {
      "inputs": [
        {
          "internalType": "address",
          "name": "_sender",
          "type": "address"
        },
        {
          "internalType": "uint256",
          "name": "_index",
          "type": "uint256"
        }
      ],
      "name": "getShipment",
      "outputs": [
        {
          "internalType": "address",
          "name": "",
          "type": "address"
        },
        {
          "internalType": "address",
          "name": "",
          "type": "address"
        },
        {
          "internalType": "uint256",
          "name": "",
          "type": "uint256"
        },
        {
          "internalType": "uint256",
          "name": "",
          "type": "uint256"
        },
        {
          "internalType": "uint256",
          "name": "",
          "type": "uint256"
        },
        {
          "internalType": "uint256",
          "name": "",
          "type": "uint256"
        },
        {
          "internalType": "enum Tracking.ShipmentStatus",
          "name": "",
          "type": "uint8"
        },
        {
          "internalType": "bool",
          "name": "",
          "type": "bool"
        }
      ],
      "stateMutability": "view",
      "type": "function"
    },
    {
      "inputs": [
        {
          "internalType": "address",
          "name": "_sender",
          "type": "address"
        }
      ],
      "name": "getShipmentsCount",
      "outputs": [
        {
          "internalType": "uint256",
          "name": "",
          "type": "uint256"
        }
      ],
      "stateMutability": "view",
      "type": "function"
    },
    {
      "inputs": [],
      "name": "shipmentCount",
      "outputs": [
        {
          "internalType": "uint256",
          "name": "",
          "type": "uint256"
        }
      ],
      "stateMutability": "view",
      "type": "function"
    },
    {
      "inputs": [
        {
          "internalType": "address",
          "name": "",
          "type": "address"
        },
        {
          "internalType": "uint256",
          "name": "",
          "type": "uint256"
        }
      ],
      "name": "shipments",
      "outputs": [
        {
          "internalType": "address",
          "name": "sender",
          "type": "address"
        },
        {
          "internalType": "address",
          "name": "receiver",
          "type": "address"
        },
        {
          "internalType": "uint256",
          "name": "pickupTime",
          "type": "uint256"
        },
        {
          "internalType": "uint256",
          "name": "deliveryTime",
          "type": "uint256"
        },
        {
          "internalType": "uint256",
          "name": "distance",
          "type": "uint256"
        },
        {
          "internalType": "uint256",
          "name": "price",
          "type": "uint256"
        },
        {
          "internalType": "enum Tracking.ShipmentStatus",
          "name": "status",
          "type": "uint8"
        },
        {
          "internalType": "bool",
          "name": "isPaid",
          "type": "bool"
        }
      ],
      "stateMutability": "view",
      "type": "function"
    },
    {
      "inputs": [
        {
          "internalType": "address",
          "name": "_sender",
          "type": "address"
        },
        {
          "internalType": "address",
          "name": "_receiver",
          "type": "address"
        },
        {
          "internalType": "uint256",
          "name": "_index",
          "type": "uint256"
        }
      ],
      "name": "startShipment",
      "outputs": [],
      "stateMutability": "nonpayable",
      "type": "function"
    }
  ],
  "bytecode": "0x608060405234801561001057600080fd5b50600060018190555061195f806100286000396000f3fe60806040526004361061007b5760003560e01c80637ff5265d1161004e5780637ff5265d146101555780638365da541461017e578063aace20b7146101c2578063cbc4b181146101ed5761007b565b8063179a878c1461008057806327506f53146100a957806341fdc195146100d45780635667e02f14610111575b600080fd5b34801561008c57600080fd5b506100a760048036038101906100a2919061116d565b610209565b005b3480156100b557600080fd5b506100be6105dd565b6040516100cb91906113c2565b60405180910390f35b3480156100e057600080fd5b506100fb60048036038101906100f691906113e4565b610767565b6040516101089190611420565b60405180910390f35b34801561011d57600080fd5b506101386004803603810190610133919061143b565b6107b2565b60405161014c9897969594939291906114a8565b60405180910390f35b34801561016157600080fd5b5061017c6004803603810190610177919061116d565b610871565b005b34801561018a57600080fd5b506101a560048036038101906101a0919061143b565b610a79565b6040516101b99897969594939291906114a8565b60405180910390f35b3480156101ce57600080fd5b506101d7610c63565b6040516101e49190611420565b60405180910390f35b61020760048036038101906102029190611526565b610c69565b005b60008060008573ffffffffffffffffffffffffffffffffffffffff1673ffffffffffffffffffffffffffffffffffffffff168152602001908152602001600020828154811061025b5761025a61158d565b5b906000526020600020906007020190506000600283815481106102815761028061158d565b5b906000526020600020906007020190508373ffffffffffffffffffffffffffffffffffffffff168260010160009054906101000a900473ffffffffffffffffffffffffffffffffffffffff1673ffffffffffffffffffffffffffffffffffffffff1614610323576040517f08c379a000000000000000000000000000000000000000000000000000000000815260040161031a90611619565b60405180910390fd5b600160028111156103375761033661120a565b5b8260060160009054906101000a900460ff16600281111561035b5761035a61120a565b5b1461039b576040517f08c379a000000000000000000000000000000000000000000000000000000000815260040161039290611685565b60405180910390fd5b8160060160019054906101000a900460ff16156103ed576040517f08c379a00000000000000000000000000000000000000000000000000000000081526004016103e4906116f1565b60405180910390fd5b60028260060160006101000a81548160ff021916908360028111156104155761041461120a565b5b021790555060028160060160006101000a81548160ff021916908360028111156104425761044161120a565b5b02179055504281600301819055504282600301819055506000826005015490508260000160009054906101000a900473ffffffffffffffffffffffffffffffffffffffff1673ffffffffffffffffffffffffffffffffffffffff166108fc829081150290604051600060405180830381858888f193505050501580156104cc573d6000803e3d6000fd5b5060018360060160016101000a81548160ff02191690831515021790555060018260060160016101000a81548160ff0219169083151502179055508473ffffffffffffffffffffffffffffffffffffffff168673ffffffffffffffffffffffffffffffffffffffff167f3746ccceb54f44c9b0ee0120e596168d07ec9f6ca303cfdd9810d3b2e2686a2e85600301546040516105689190611420565b60405180910390a38473ffffffffffffffffffffffffffffffffffffffff168673ffffffffffffffffffffffffffffffffffffffff167f2b6f2473aebafaf8d0889669490135928ec4454d2e29a103fd39693bbca6aef1836040516105cd9190611420565b60405180910390a3505050505050565b60606002805480602002602001604051908101604052809291908181526020016000905b8282101561075e5783829060005260206000209060070201604051806101000160405290816000820160009054906101000a900473ffffffffffffffffffffffffffffffffffffffff1673ffffffffffffffffffffffffffffffffffffffff1673ffffffffffffffffffffffffffffffffffffffff1681526020016001820160009054906101000a900473ffffffffffffffffffffffffffffffffffffffff1673ffffffffffffffffffffffffffffffffffffffff1673ffffffffffffffffffffffffffffffffffffffff168152602001600282015481526020016003820154815260200160048201548152602001600582015481526020016006820160009054906101000a900460ff16600281111561071e5761071d61120a565b5b60028111156107305761072f61120a565b5b81526020016006820160019054906101000a900460ff16151515158152505081526020019060010190610601565b50505050905090565b60008060008373ffffffffffffffffffffffffffffffffffffffff1673ffffffffffffffffffffffffffffffffffffffff168152602001908152602001600020805490509050919050565b600060205281600052604060002081815481106107ce57600080fd5b9060005260206000209060070201600091509150508060000160009054906101000a900473ffffffffffffffffffffffffffffffffffffffff16908060010160009054906101000a900473ffffffffffffffffffffffffffffffffffffffff16908060020154908060030154908060040154908060050154908060060160009054906101000a900460ff16908060060160019054906101000a900460ff16905088565b60008060008573ffffffffffffffffffffffffffffffffffffffff1673ffffffffffffffffffffffffffffffffffffffff16815260200190815260200160002082815481106108c3576108c261158d565b5b906000526020600020906007020190508273ffffffffffffffffffffffffffffffffffffffff168160010160009054906101000a900473ffffffffffffffffffffffffffffffffffffffff1673ffffffffffffffffffffffffffffffffffffffff1614610965576040517f08c379a000000000000000000000000000000000000000000000000000000000815260040161095c9061175d565b60405180910390fd5b600060028111156109795761097861120a565b5b8160060160009054906101000a900460ff16600281111561099d5761099c61120a565b5b146109dd576040517f08c379a00000000000000000000000000000000000000000000000000000000081526004016109d4906117c9565b60405180910390fd5b60018160060160006101000a81548160ff02191690836002811115610a0557610a0461120a565b5b02179055508273ffffffffffffffffffffffffffffffffffffffff168473ffffffffffffffffffffffffffffffffffffffff167faafab9f94340179ff9cefd29621e1772a4b8efab8023163838f1b0a8f6ce5df58360020154604051610a6b9190611420565b60405180910390a350505050565b60008060008060008060008060008060008c73ffffffffffffffffffffffffffffffffffffffff1673ffffffffffffffffffffffffffffffffffffffff1681526020019081526020016000208a81548110610ad757610ad661158d565b5b9060005260206000209060070201604051806101000160405290816000820160009054906101000a900473ffffffffffffffffffffffffffffffffffffffff1673ffffffffffffffffffffffffffffffffffffffff1673ffffffffffffffffffffffffffffffffffffffff1681526020016001820160009054906101000a900473ffffffffffffffffffffffffffffffffffffffff1673ffffffffffffffffffffffffffffffffffffffff1673ffffffffffffffffffffffffffffffffffffffff168152602001600282015481526020016003820154815260200160048201548152602001600582015481526020016006820160009054906101000a900460ff166002811115610bea57610be961120a565b5b6002811115610bfc57610bfb61120a565b5b81526020016006820160019054906101000a900460ff1615151515815250509050806000015181602001518260400151836060015184608001518560a001518660c001518760e0015198509850985098509850985098509850509295985092959890939650565b60015481565b803414610cab576040517f08c379a0000000000000000000000000000000000000000000000000000000008152600401610ca29061185b565b60405180910390fd5b60006040518061010001604052803373ffffffffffffffffffffffffffffffffffffffff1681526020018673ffffffffffffffffffffffffffffffffffffffff1681526020018581526020016000815260200184815260200183815260200160006002811115610d1e57610d1d61120a565b5b81526020016000151581525090506000803373ffffffffffffffffffffffffffffffffffffffff1673ffffffffffffffffffffffffffffffffffffffff16815260200190815260200160002081908060018154018082558091505060019003906000526020600020906007020160009091909190915060008201518160000160006101000a81548173ffffffffffffffffffffffffffffffffffffffff021916908373ffffffffffffffffffffffffffffffffffffffff16021790555060208201518160010160006101000a81548173ffffffffffffffffffffffffffffffffffffffff021916908373ffffffffffffffffffffffffffffffffffffffff16021790555060408201518160020155606082015181600301556080820151816004015560a0820151816005015560c08201518160060160006101000a81548160ff02191690836002811115610e7557610e7461120a565b5b021790555060e08201518160060160016101000a81548160ff021916908315150217905550505060016000815480929190610eaf906118aa565b919050555060026040518061010001604052803373ffffffffffffffffffffffffffffffffffffffff1681526020018773ffffffffffffffffffffffffffffffffffffffff1681526020018681526020016000815260200185815260200184815260200160006002811115610f2757610f2661120a565b5b815260200160001515815250908060018154018082558091505060019003906000526020600020906007020160009091909190915060008201518160000160006101000a81548173ffffffffffffffffffffffffffffffffffffffff021916908373ffffffffffffffffffffffffffffffffffffffff16021790555060208201518160010160006101000a81548173ffffffffffffffffffffffffffffffffffffffff021916908373ffffffffffffffffffffffffffffffffffffffff16021790555060408201518160020155606082015181600301556080820151816004015560a0820151816005015560c08201518160060160006101000a81548160ff0219169083600281111561103d5761103c61120a565b5b021790555060e08201518160060160016101000a81548160ff02191690831515021790555050508473ffffffffffffffffffffffffffffffffffffffff163373ffffffffffffffffffffffffffffffffffffffff167f5001b34ecf2db5b7bbeddcbbe761ec9ecadcc7638018b98ce3e24995b0e946b68686866040516110c5939291906118f2565b60405180910390a35050505050565b600080fd5b600073ffffffffffffffffffffffffffffffffffffffff82169050919050565b6000611104826110d9565b9050919050565b611114816110f9565b811461111f57600080fd5b50565b6000813590506111318161110b565b92915050565b6000819050919050565b61114a81611137565b811461115557600080fd5b50565b60008135905061116781611141565b92915050565b600080600060608486031215611186576111856110d4565b5b600061119486828701611122565b93505060206111a586828701611122565b92505060406111b686828701611158565b9150509250925092565b600081519050919050565b600082825260208201905092915050565b6000819050602082019050919050565b6111f5816110f9565b82525050565b61120481611137565b82525050565b7f4e487b7100000000000000000000000000000000000000000000000000000000600052602160045260246000fd5b6003811061124a5761124961120a565b5b50565b600081905061125b82611239565b919050565b600061126b8261124d565b9050919050565b61127b81611260565b82525050565b60008115159050919050565b61129681611281565b82525050565b610100820160008201516112b360008501826111ec565b5060208201516112c660208501826111ec565b5060408201516112d960408501826111fb565b5060608201516112ec60608501826111fb565b5060808201516112ff60808501826111fb565b5060a082015161131260a08501826111fb565b5060c082015161132560c0850182611272565b5060e082015161133860e085018261128d565b50505050565b600061134a838361129c565b6101008301905092915050565b6000602082019050919050565b600061136f826111c0565b61137981856111cb565b9350611384836111dc565b8060005b838110156113b557815161139c888261133e565b97506113a783611357565b925050600181019050611388565b5085935050505092915050565b600060208201905081810360008301526113dc8184611364565b905092915050565b6000602082840312156113fa576113f96110d4565b5b600061140884828501611122565b91505092915050565b61141a81611137565b82525050565b60006020820190506114356000830184611411565b92915050565b60008060408385031215611452576114516110d4565b5b600061146085828601611122565b925050602061147185828601611158565b9150509250929050565b611484816110f9565b82525050565b61149381611260565b82525050565b6114a281611281565b82525050565b6000610100820190506114be600083018b61147b565b6114cb602083018a61147b565b6114d86040830189611411565b6114e56060830188611411565b6114f26080830187611411565b6114ff60a0830186611411565b61150c60c083018561148a565b61151960e0830184611499565b9998505050505050505050565b600080600080608085870312156115405761153f6110d4565b5b600061154e87828801611122565b945050602061155f87828801611158565b935050604061157087828801611158565b925050606061158187828801611158565b91505092959194509250565b7f4e487b7100000000000000000000000000000000000000000000000000000000600052603260045260246000fd5b600082825260208201905092915050565b7f496e76616c696420726563656976657200000000000000000000000000000000600082015250565b60006116036010836115bc565b915061160e826115cd565b602082019050919050565b60006020820190508181036000830152611632816115f6565b9050919050565b7f736869706d656e74206e6f7420696e207472616e736974000000000000000000600082015250565b600061166f6017836115bc565b915061167a82611639565b602082019050919050565b6000602082019050818103600083015261169e81611662565b9050919050565b7f536869706d656e7420616c726561647920706169640000000000000000000000600082015250565b60006116db6015836115bc565b91506116e6826116a5565b602082019050919050565b6000602082019050818103600083015261170a816116ce565b9050919050565b7f696e76616c696420726563656976657200000000000000000000000000000000600082015250565b60006117476010836115bc565b915061175282611711565b602082019050919050565b600060208201905081810360008301526117768161173a565b9050919050565b7f736869706d656e7420616c726561647920696e207472616e7369740000000000600082015250565b60006117b3601b836115bc565b91506117be8261177d565b602082019050919050565b600060208201905081810360008301526117e2816117a6565b9050919050565b7f5061796d656e7420616d6f756e74206d757374206d617463682074686520707260008201527f6963650000000000000000000000000000000000000000000000000000000000602082015250565b60006118456023836115bc565b9150611850826117e9565b604082019050919050565b6000602082019050818103600083015261187481611838565b9050919050565b7f4e487b7100000000000000000000000000000000000000000000000000000000600052601160045260246000fd5b60006118b582611137565b91507fffffffffffffffffffffffffffffffffffffffffffffffffffffffffffffffff82036118e7576118e661187b565b5b600182019050919050565b60006060820190506119076000830186611411565b6119146020830185611411565b6119216040830184611411565b94935050505056fea26469706673582212207acfa8d7732f96b54c6729706dbc1e9c354d61f3b52b37ede34ef1cc7691021e64736f6c63430008180033",
  "linkReferences": {},
  "deployedLinkReferences": {}
}